:020000020000FC
:0200000045C0F9
:10008C000FEF0DBF00E10EBF00E008BB0FEF07BB89
:10009C000FEF02BB00E001BB00E608BB00B303702E
:1000AC00023011F405D0FACF0130C1F716D0F6CFDB
:1000BC000F931F930FB70F9300E008BB14E622D0E9
:1000CC0000E208BB14E61ED014E61CD000E608BB08
:1000DC000F910FBF1F910F9108950F931F930FB79F
:1000EC000F9300E008BB14E60DD014E60BD000E42F
:1000FC0008BB14E607D000E608BB0F910FBF1F9199
:10010C000F9108951F932F933F9330EE2DEE2A9568
:10011C00F1F73A95D9F71A95C1F73F912F911F91A5
:02012C00089534
:00000001FF
