:020000020000FC
:0200000045C0F9
:10008C000FEF0DBF00E10EBF0FEF07BB00E001BB90
:10009C0009E703BF05BD0FEF01BF03BD00E608BBB9
:1000AC0010E050E051BF53BD08B3007F012B08BBDB
:1000BC00AEE1B1E000B300FD0AC01F3031F024E125
:1000CC000E947F00139501E1500F51BF53BD00B347
:1000DC0001FD09C0103029F024E10E947F001A951F
:1000EC00515151BF53BD08B3007F012B08BB000019
:1000FC00E1CF2F933F934F9340EE3DEE3A95F1F7BE
:10010C004A95D9F72A95C1F74F913F912F910895B0
:02011C00089544
:00000001FF
