:020000020000FC
:0200000045C0F9
:02007800A7C01F
:10008C000FEF0DBF00E10EBF0FEF07BB08E001BB88
:10009C0008E900939A000EE200939D0000EA009399
:1000AC00990001E00093980007E2502E00EB602EBF
:1000BC0000E6702E789400C007E206FD06C005FD30
:1000CC000C94A80004FD0C94E00000E008BB00B305
:1000DC000095037FD1F3552700B307FF50E906FFC6
:1000EC0050EA05FF50E804FF50EB03FF000002FF4D
:1000FC00000001FF58EC00FF58EF00919B0005FF3A
:10010C00FCCF07E200939C0000919B0005FFFCCF05
:10011C0000000000000000000000000000000000D3
:10012C0000000000000000000000000000000000C3
:10013C000000000050939C000FEF08BB24E10E94CC
:10014C00F000C3CF000003E0501659F007E2501640
:10015C00C9F7062D083FA9F0000F08BB702E862C9E
:10016C00F1CFF89400E908BB2AEF0E94F0002AEFC7
:10017C000E94F00005E508BB682C07E2502E78942D
:10018C00E1CFF89408E000939A0000919B0005FFE2
:10019C00FCCF03E000939C00682C07E2502E04E196
:1001AC00202F0E94F0000000000008E900939A0044
:1001BC007894C8CF0000FECF0C9462000F9300918E
:1001CC009C0007FF01C002C0502E02C0602E00C070
:1001DC000F9118952F933F934F9340EE3DEE3A9528
:1001EC00F1F74A95D9F72A95C1F74F913F912F9185
:0201FC00089564
:00000001FF
