:020000020000FC
:0200000045C0F9
:02007800B7C00F
:10008C000FEF0DBF00E10EBF0FEF07BB08E001BB88
:10009C0008E900939A000EE200939D0000EA009399
:1000AC00990001E00093980007E2902E00EBA02E3F
:1000BC0000E6702E789400C007E206FD06C005FD30
:1000CC000C94A80004FD0C94F00000E008BB00B3F5
:1000DC000095037FD1F3552700B307FF50E906FFC6
:1000EC0050EA05FF50E804FF50EB03FF000002FF4D
:1000FC00000001FF58EC00FF58EF00919B0005FF3A
:10010C00FCCF07E200939C0000919B0005FFFCCF05
:10011C0000000000000000000000000000000000D3
:10012C0000000000000000000000000000000000C3
:10013C000000000050939C000FEF08BB24E10E94CC
:10014C000001C3CF000000B301FF0E94240100FF97
:10015C000E940F01592C6A2C07E2501699F70FE8F0
:10016C00601641F0062D083FA9F0000F08BB702E59
:10017C00862CE8CFF89400E908BB2AEF0E94000116
:10018C002AEF0E94000105E508BB682C07E2502EFF
:10019C007894D8CFF89408E000939A0000919B00D3
:1001AC0005FFFCCF03E200939C0000919B0005FF30
:1001BC00FCCF0FE800939C00A82C07E2902E04E1E2
:1001CC00202F0E9400010000000008E900939A0013
:1001DC007894B8CF0000FECF0C9462000F9300917E
:1001EC009C0007FF01C002C0902E02C0A02E00C0D0
:1001FC000F9118952F933F934F9340EE3DEE3A9508
:10020C00F1F74A95D9F72A95C1F74F913F912F9164
:10021C0008950F932F930FB70F9300E008BB24E6BC
:10022C00E9DF00E208BB24E6E5DF24E6E3DF00E6D5
:10023C0008BB0F910FBF2F910F9108950F932F9320
:10024C000FB70F9300E008BB24E6D4DF24E6D2DF1F
:10025C0000E408BB24E6CEDF00E608BB0F910FBF1D
:06026C002F910F9108958F
:00000001FF
