:020000020000FC
:0200000045C0F9
:02007800B0C016
:10008C000FEF0DBF00E10EBF0FEF07BB08E001BB88
:10009C0008E900939A000EE200939D0000EA009399
:1000AC00990001E00093980007E2902E00EBA02E3F
:1000BC0000E6702E789400C007E206FD06C005FD30
:1000CC000C94A80004FD0C94E90000E008BB00B3FC
:1000DC000095037FD1F3552700B307FF50E906FFC6
:1000EC0050EA05FF50E804FF50EB03FF000002FF4D
:1000FC00000001FF58EC00FF58EF00919B0005FF3A
:10010C00FCCF07E200939C0000919B0005FFFCCF05
:10011C0000000000000000000000000000000000D3
:10012C0000000000000000000000000000000000C3
:10013C000000000050939C000FEF08BB24E10E94CC
:10014C00F900C3CF0000592C6A2C07E25016D1F7E6
:10015C000FE8601641F0062D083FA9F0000F08BB10
:10016C00702E862CEFCFF89400E908BB2AEF0E9482
:10017C00F9002AEF0E94F90005E508BB682C07E29C
:10018C00502E7894DFCFF89408E000939A000091F9
:10019C009B0005FFFCCF03E200939C0000919B00A9
:1001AC0005FFFCCF0FE800939C00A82C07E2902ED3
:1001BC0004E1202F0E94F9000000000008E90093E0
:1001CC009A007894BFCF0000FECF0C9462000F937E
:1001DC0000919C0007FF01C002C0902E02C0A02E0F
:1001EC0000C00F9118952F933F934F9340EE3DEE27
:1001FC003A95F1F74A95D9F72A95C1F74F913F9166
:04020C002F91089591
:00000001FF
