:020000020000FC
:0200000045C0F9
:02007800ABC01B
:10008C000FEF0DBF00E10EBF0FEF07BB08E001BB88
:10009C0008E900939A000EE200939D0000EA009399
:1000AC00990001E00093980007E4902E00EBA02E3D
:1000BC0000E6702E00EB802E03E0B02E789400C08A
:1000CC0007E406FD06C005FD0C949A0004FD0C9493
:1000DC00E40000E008BB00B30095037FD1F3552783
:1000EC0000B307FF50E906FF50EA05FF50E804FF94
:1000FC0050EB03FF000002FF000001FF58EC00FF73
:10010C0058EF00919B0005FFFCCF07E200939C0089
:10011C0000919B0005FFFCCF50939C000FEF08BB98
:10012C0024E10E94F400D5CF000000B301FF0E942F
:10013C00180100FF0E940301592C6A2C07E4501689
:10014C0099F70FEF061101C008C0062D083FB1F05A
:10015C00000F08BB702E862CE7CFF89400E908BB83
:10016C002AEF0E94F4002AEF0E94F400BA9429F0BE
:10017C00A82C07E4902E7894D7CFFFCFF89408E002
:10018C0000939A0000919B0005FFFCCF0FEF0093AA
:10019C009C0000919B0005FFFCCF03E200939C00A8
:1001AC00A82C07E4902E04E1202F0E94F4000000FC
:1001BC00000008E900939A007894B6CF0000FECFB7
:1001CC000C9466000F9300919C0007FF01C002C0C5
:1001DC00902E02C0A02E00C00F9118952F933F9324
:1001EC004F9340EE3DEE3A95F1F74A95D9F72A95A3
:1001FC00C1F74F913F912F9108950F932F930FB704
:10020C000F9300E008BB24E6E9DF00E208BB24E61C
:10021C00E5DF24E6E3DF00E608BB0F910FBF2F916B
:10022C000F9108950F932F930FB70F9300E008BB16
:10023C0024E6D4DF24E6D2DF00E408BB24E6CEDFDC
:0E024C0000E608BB0F910FBF2F910F91089590
:00000001FF
