:020000020000FC
:0200000045C0F9
:10008C000FEF0DBF00E10EBF2224C2E1D1E00FEF54
:10009C0009930FEF0883C4E1D1E00FEF09930FEF41
:1000AC00088317D0C0E0D1E0E6E1F1E001910993BB
:1000BC000191099300810883C3E0D1E0E6E1F1E00E
:1000CC0001910993019109930081088333D00000B9
:1000DC00FFCF3F924F921F920F922F92BF93AF93ED
:1000EC00DF93CF93FF93EF931F932F93E2E1F1E014
:1000FC000081E4E1F1E06191060FC6E1D1E00993E2
:10010C006081E2E1F1E0E3950081061F099310F0B4
:10011C00002701C001E008832F911F91EF91FF91FF
:10012C00CF91DF91AF91BF912F900F901F904F9077
:10013C003F9008953F924F921F920F922F92BF9330
:10014C00AF93DF93CF93FF93EF931F932F932224BF
:10015C00C3E0D1E0E6E0F1E013E0A0E0B1E023E0A1
:10016C003D904880349C31904190030C141C30809D
:10017C00321C30821292029231962A9589F732976C
:10018C0021961A9551F72F911F91EF91FF91CF91D5
:10019C00DF91AF91BF912F900F901F904F903F9098
:1001AC0008953F924F921F920F922F92BF93AF934D
:1001BC00DF93CF93FF93EF931F932F932224C3E0EE
:1001CC00D1E0E6E0F1E012E0A0E0B1E022E03D9009
:1001DC004880349C31904190030C141C3080321CAC
:1001EC0030821292029231962A9589F73197219694
:1001FC001A9551F72F911F91EF91FF91CF91DF91AC
:10020C00AF91BF912F900F901F904F903F900895FA
:02021C00089543
:00000001FF
