:020000020000FC
:0200000045C0F9
:10008C00222401E0C0E1D1E0099300E0088300E103
:10009C00C2E1D1E0099300E0088302D00000FFCF59
:1000AC003F924F921F920F922F92BF93AF93DF9379
:1000BC00CF93FF93EF931F932F93E0E1F1E0049123
:1000CC00E2E1F1E06591060FC4E1D1E0099364919E
:1000DC00E0E1F1E0E3950491061F099310F000278D
:1000EC0001C001E008832F931F93EF93FF93CF93ED
:1000FC00DF93AF93BF932F920F921F924F923F9229
:10010C00089508953F924F921F920F922F92BF9392
:10011C00AF93DF93CF93FF93EF931F932F932224EF
:10012C00C2E0D1E0E4E0F1E012E0A0E0B1E022E0D6
:10013C003D904880349C31904190030C141C3080CD
:10014C00321C30821292029231962A9589F731979D
:10015C0021961A9551F72F911F91EF91FF91CF9105
:10016C00DF91AF91BF912F900F901F904F903F90C8
:04017C000895089545
:00000001FF
